:100000000C9434000C9451000C9451000C94510049
:100010000C9451000C9451000C9451000C9451001C
:100020000C9451000C9451000C9451000C9451000C
:100030000C9451000C9451000C9453000C945100FA
:100040000C9451000C9451000C9451000C945100EC
:100050000C94AF000C9451000C9451000C9451007E
:100060000C9451000C94510011241FBECFEFD8E026
:10007000DEBFCDBF11E0A0E0B1E0E6ECF2E002C0EF
:1000800005900D92AC31B107D9F721E0ACE1B1E0B8
:1000900001C01D92AE3DB207E1F70E94D5000C945D
:1000A00061010C9400001F920F920FB60F92112461
:1000B0008F939F93809120019091210101969093BD
:1000C0002101809320018536910584F080911E01E5
:1000D00090911F01019690931F0180931E0185B19D
:1000E000809585B910922101109220019F918F91E6
:1000F0000F900FBE0F901F90189590911C01E92F43
:10010000F0E0E25AFE4F80839F5F97FD03C090931B
:100110001C01089510921C0108951F93CF93DF9343
:10012000EC0110E0812F90E0FE0101900020E9F742
:100130003197EC1BFD0B8E179F0740F4FE01E80F73
:10014000F91F80810E947D001F5FECCF8091C0006D
:1001500085FD1092C600DF91CF911F9108951F92E7
:100160000F920FB60F9211248F93EF93FF93E091AC
:100170001D0180911C01E81781F0F0E0E25AFE4F6A
:1001800080818093C60080911D018F5F87FD03C031
:1001900080931D0102C010921D01FF91EF918F917C
:1001A0000F900FBE0F901F90189582E084BD95E0D0
:1001B00095BD9CE997BD80936E008FB780688FBF17
:1001C00081E084B91092C50087E68093C40088E47A
:1001D0008093C10086E08093C2004AE050E062E272
:1001E00071E080911E0190911F010E94210182E225
:1001F00091E00E948D008AE191E00E948D0085B11E
:1002000042E050E062E271E090E00E94210180E073
:1002100091E00E948D0082E291E00E948D008AE1CF
:1002200091E00E948D0080E191E00E948D002FEF0F
:1002300083ED90E3215080409040E1F700C0000042
:10024000CCCF4532510520F4423010F00C942C01F3
:10025000FB011082CB010895BB274A3031F499236A
:1002600022F4BDE2909581959F4F0C943801BB27F5
:10027000FB015527AA27880F991FAA1FA41710F062
:10028000A41B83955051B9F7A05DAA3308F0A95D6E
:10029000A193009779F7B111B1931192CB010C940E
:1002A0005101DC01FC01672F71917723E1F732974F
:1002B00004C07C916D9370836291AE17BF07C8F341
:0602C0000895F894FFCF41
:1002C600504F5254422076616C7565206973200048
:0C02D6003D3D3D3D3D3D3D3D3D200A00CD
:00000001FF
