S00E000053657269616C2E73726563B6
S11300000C9434000C9451000C9451000C94510045
S11300100C9451000C9451000C9451000C94510018
S11300200C9451000C9451000C9451000C94510008
S11300300C9451000C9451000C9451000C945100F8
S11300400C9451000C9451000C9451000C945100E8
S11300500C949E000C9451000C9451000C9451008B
S11300600C9451000C94510011241FBECFEFD8E022
S1130070DEBFCDBF11E0A0E0B1E0E2E9F1E002C0F3
S113008005900D92A830B107D9F721E0A8E0B1E0BE
S113009001C01D92AA38B207E1F70E9484000C94B3
S11300A0C7000C94000090910801E92FF0E0E65F8E
S11300B0FE4F80839F5F1AF0909308010895109279
S11300C0080108951F93CF93DF93EC0110E007C05C
S11300D0FE01E80FF91F80810E9453001F5F812FEA
S11300E090E0FE0101900020E9F73197EC1BFD0B35
S11300F08E179F0768F38091C00085FD1092C6009B
S1130100DF91CF911F9108951092C50087E68093E7
S1130110C40088E48093C10086E08093C200789490
S113012080E091E00E9462002FEF83ED90E3215084
S113013080409040E1F700C00000F2CF1F920F9280
S11301400FB60F9211248F939F93EF93FF93E09137
S1130150090180910801E81789F0F0E0E65FFE4F9D
S113016080818093C6008091090191E0980F1AF074
S11301709093090103C08E5F80930901FF91EF9171
S11301809F918F910F900FBE0F901F901895F89428
S1050190FFCF9B
S10B019248656C6C6F0A0D0056
S9030000FC
