S027000061746D656761333238705F626F6F746C6F616465725F626C696E6B5F6431332E7372656361
S11300000C9434000C943E000C943E000C943E007E
S11300100C943E000C943E000C943E000C943E0064
S11300200C943E000C943E000C943E000C943E0054
S11300300C943E000C943E000C943E000C943E0044
S11300400C943E000C943E000C943E000C943E0034
S11300500C943E000C943E000C943E000C943E0024
S11300600C943E000C943E0011241FBECFEFD8E048
S1130070DEBFCDBF0E9440000C9456000C940000DB
S1130080259A459A2FEF83ED90E3215080409040CC
S1130090E1F700C0000045982FEF83ED90E3215075
S11300A080409040E1F700C00000EBCFF894FFCF10
S9030000FC
