:100000000C9434000C9451000C9451000C94510049
:100010000C9451000C9451000C9451000C9451001C
:100020000C9451000C9451000C9451000C9451000C
:100030000C9451000C9451000C9485000C94BB005E
:100040000C9451000C9451000C9451000C945100EC
:100050000C94F0000C9451000C9451000C9451003D
:100060000C9451000C94510011241FBECFEFD8E026
:10007000DEBFCDBF11E0A0E0B1E0E2E8F2E002C0F7
:1000800005900D92AE32B107D9F722E0AEE2B1E0B1
:1000900001C01D92A430B207E1F70E9416010C9432
:1000A0003F010C94000090912E01E92FF0E0EC57F5
:1000B000FE4F80839F5F97FD03C090932E010895AC
:1000C00010922E0108951F93CF93DF93EC0110E05F
:1000D000812F90E0FE0101900020E9F73197EC1BA1
:1000E000FD0B8E179F0740F4FE01E80FF91F80817A
:1000F0000E9453001F5FECCF8091C00085FD1092DD
:10010000C600DF91CF911F9108951F920F920FB6F5
:100110000F9211242F933F934F935F936F937F938D
:100120008F939F93AF93BF93EF93FF93809132018F
:10013000909133010196909333018093320184367C
:10014000910541F482E091E00E9463001092330136
:1001500010923201FF91EF91BF91AF919F918F91DA
:100160007F916F915F914F913F912F910F900FBEB3
:100170000F901F9018951F920F920FB60F92112497
:100180002F933F934F935F936F937F938F939F939F
:10019000AF93BF93EF93FF93809130019091310122
:1001A00001969093310180933001CD9744F089E11D
:1001B00091E00E9463001092310110923001FF9192
:1001C000EF91BF91AF919F918F917F916F915F91CF
:1001D0004F913F912F910F900FBE0F901F90189548
:1001E0001F920F920FB60F9211248F93EF93FF93EC
:1001F000E0912F0180912E01E81781F0F0E0EC579B
:10020000FE4F80818093C60080912F018F5F87FD14
:1002100003C080932F0102C010922F01FF91EF9134
:100220008F910F900FBE0F901F90189584B584BDCD
:1002300085B585BD85B5856085BD8FEF87BD88BDDA
:1002400080916E00826080936E0080916E00846069
:1002500080936E008FB780688FBF81E084B9109261
:10026000C50087E68093C4008091C10088648093B4
:10027000C1008091C20086608093C200FFCFF894D5
:02028000FFCFAE
:10028200010031206D61746368207061737365646D
:10029200204F435230410A0D0031207365632070B4
:0E02A2006173736564204F435230420A0D00B1
:00000001FF
