:100000000C9434000C9451000C9451000C94510049
:100010000C9451000C9451000C9451000C9451001C
:100020000C9451000C9451000C9451000C9451000C
:100030000C9451000C9451000C9485000C945100C8
:100040000C9451000C9451000C9451000C945100EC
:100050000C94BB000C9451000C9451000C94510072
:100060000C9451000C94510011241FBECFEFD8E026
:10007000DEBFCDBF11E0A0E0B1E0EEE1F2E002C0F2
:1000800005900D92A830B107D9F721E0A8E0B1E0C2
:1000900001C01D92AE3DB207E1F70E94E1000C9451
:1000A0000D010C94000090910801E92FF0E0E25A54
:1000B000FE4F80839F5F97FD03C0909308010895D2
:1000C0001092080108951F93CF93DF93EC0110E085
:1000D000812F90E0FE0101900020E9F73197EC1BA1
:1000E000FD0B8E179F0740F4FE01E80FF91F80817A
:1000F0000E9453001F5FECCF8091C00085FD1092DD
:10010000C600DF91CF911F9108951F920F920FB6F5
:100110000F9211242F933F934F935F936F937F938D
:100120008F939F93AF93BF93EF93FF9380910C01B5
:1001300090910D01019690930D0180930C018436EE
:10014000910544F080E091E00E94630010920D015F
:1001500010920C01FF91EF91BF91AF919F918F9100
:100160007F916F915F914F913F912F910F900FBEB3
:100170000F901F9018951F920F920FB60F92112497
:100180008F93EF93FF93E091090180910801E817A5
:1001900081F0F0E0E25AFE4F80818093C6008091AA
:1001A00009018F5F87FD03C08093090102C010928F
:1001B0000901FF91EF918F910F900FBE0F901F904B
:1001C000189584B584BD85B585BD85B5856085BD2B
:1001D0008CE987BD80916E00826080936E008FB73E
:1001E00080688FBF81E084B91092C50087E6809354
:1001F000C4008091C10088648093C1008091C200D6
:1002000086608093C2002FEF83ED90E32150804001
:0E0210009040E1F700C00000F6CFF894FFCF59
:08021E00436F6D7061200A00BE
:00000001FF
