:100000000C9434000C9451000C9451000C94510049
:100010000C9451000C9451000C9451000C9451001C
:100020000C9451000C9451000C9451000C9451000C
:100030000C9451000C9451000C9485000C94BB005E
:100040000C9451000C9451000C9451000C945100EC
:100050000C94F1000C9451000C9451000C9451003C
:100060000C9451000C94510011241FBECFEFD8E026
:10007000DEBFCDBF11E0A0E0B1E0E2E9F2E002C0F6
:1000800005900D92A031B107D9F721E0A0E1B1E0D0
:1000900001C01D92A63EB207E1F70E9417010C9421
:1000A00047010C94000090911001E92FF0E0EA590B
:1000B000FE4F80839F5F97FD03C0909310010895CA
:1000C0001092100108951F93CF93DF93EC0110E07D
:1000D000812F90E0FE0101900020E9F73197EC1BA1
:1000E000FD0B8E179F0740F4FE01E80FF91F80817A
:1000F0000E9453001F5FECCF8091C00085FD1092DD
:10010000C600DF91CF911F9108951F920F920FB6F5
:100110000F9211242F933F934F935F936F937F938D
:100120008F939F93AF93BF93EF93FF9380911401AD
:1001300090911501019690931501809314018536D5
:10014000910544F080E091E00E9463001092150157
:1001500010921401FF91EF91BF91AF919F918F91F8
:100160007F916F915F914F913F912F910F900FBEB3
:100170000F901F9018951F920F920FB60F92112497
:100180002F933F934F935F936F937F938F939F939F
:10019000AF93BF93EF93FF9380911201909113015E
:1001A000019690931301809312018536910544F0D6
:1001B00088E091E00E9463001092130110921201F6
:1001C000FF91EF91BF91AF919F918F917F916F912F
:1001D0005F914F913F912F910F900FBE0F901F9005
:1001E00018951F920F920FB60F9211248F93EF93D1
:1001F000FF93E091110180911001E81781F0F0E088
:10020000EA59FE4F80818093C600809111018F5F73
:1002100087FD03C08093110102C010921101FF916C
:10022000EF918F910F900FBE0F901F90189584B58E
:10023000826084BD85B5856085BD8CE987BD809170
:100240006E00826080936E0080916E008460809367
:100250006E008FB780688FBF81E084B91092C500AF
:1002600087E68093C4008091C10088648093C100B8
:100270008091C20086608093C2002FEF83ED90E3EF
:10028000215080409040E1F700C00000F6CFF89484
:02029000FFCF9E
:10029200436F6D7061200A00436F6D7042200A0047
:00000001FF
