:100000000C9434000C9451000C9451000C94510049
:100010000C9451000C9451000C9451000C9451001C
:100020000C9451000C9451000C9451000C9451000C
:100030000C9451000C9451000C9485000C945100C8
:100040000C9451000C9451000C9451000C945100EC
:100050000C94DC000C9451000C9451000C94510051
:100060000C9451000C94510011241FBECFEFD8E026
:10007000DEBFCDBF11E0A0E0B1E0E6EFF2E002C0EC
:1000800005900D92AE32B107D9F722E0AEE2B1E0B1
:1000900001C01D92A230B207E1F70E9402010C9448
:1000A00079010C94000090912E01E92FF0E0EE57B9
:1000B000FE4F80839F5F97FD03C090932E010895AC
:1000C00010922E0108951F93CF93DF93EC0110E05F
:1000D000812F90E0FE0101900020E9F73197EC1BA1
:1000E000FD0B8E179F0740F4FE01E80FF91F80817A
:1000F0000E9453001F5FECCF8091C00085FD1092DD
:10010000C600DF91CF911F9108951F920F920FB6F5
:100110000F9211242F933F934F935F936F937F938D
:100120008F939F93AF93BF93EF93FF938091300191
:10013000909131010196853691052CF4909331010F
:100140008093300128C0109231011092300185B1A6
:10015000809585B985B142E050E062E371E090E0BE
:100160000E94390181E191E00E94630082E391E005
:100170000E9463008BE291E00E94630081E291E0C3
:100180000E9463002FEF83ED90E321508040904068
:10019000E1F700C00000FF91EF91BF91AF919F91F7
:1001A0008F917F916F915F914F913F912F910F9020
:1001B0000FBE0F901F9018951F920F920FB60F92BF
:1001C00011248F93EF93FF93E0912F0180912E01E3
:1001D000E81781F0F0E0EE57FE4F80818093C60073
:1001E00080912F018F5F87FD03C080932F0102C094
:1001F00010922F01FF91EF918F910F900FBE0F90F2
:100200001F90189584B5826084BD85B5856085BDD5
:100210008CE987BD80916E00826080936E008FB7FD
:1002200080688FBF81E084B91092C50087E6809313
:10023000C4008091C10088648093C1008091C20095
:1002400086608093C20080916E0042E050E062E3DD
:1002500071E090E00E94390180E091E00E9463002B
:1002600082E391E00E9463008BE291E00E946300D0
:10027000FFCF4532510520F4423010F00C94440178
:10028000FB011082CB010895BB274A3031F499233A
:1002900022F4BDE2909581959F4F0C945001BB27AD
:1002A000FB015527AA27880F991FAA1FA41710F032
:1002B000A41B83955051B9F7A05DAA3308F0A95D3E
:1002C000A193009779F7B111B1931192CB010C94DE
:1002D0006901DC01FC01672F71917723E1F7329707
:1002E00004C07C916D9370836291AE17BF07C8F311
:0602F0000895F894FFCF11
:1002F60054494D534B302076616C756520697320E7
:1003060000504F5254422076616C75652069732007
:0E031600003D3D3D3D3D3D3D3D3D200A00008A
:00000001FF
