:100000000C9434000C9451000C9451000C94510049
:100010000C9451000C9451000C9451000C9451001C
:100020000C9451000C9451000C9451000C9451000C
:100030000C9451000C9451000C9451000C945100FC
:100040000C9451000C9451000C9451000C945100EC
:100050000C94CC000C9476000C9451000C9451003C
:100060000C9451000C94510011241FBECFEFD8E026
:10007000DEBFCDBF11E0A0E0B1E0E6E7F3E002C0F3
:1000800005900D92A234B107D9F722E0A2E4B1E0C5
:1000900001C01D92A230B207E1F70E94F2000C9459
:1000A000B9010C940000EAE7F0E08081806480836D
:1000B0000895ECE7F0E08081806480838081856032
:1000C0008083808180628083EAE7F0E080818068BD
:1000D0008083808188608083808187608083EEE771
:1000E000F0E08081806280830C9453001F920F9215
:1000F0000FB60F9211242F933F934F935F936F93FB
:100100007F938F939F93AF93BF93EF93FF930E943F
:100110005300FF91EF91BF91AF919F918F917F918C
:100120006F915F914F913F912F910F900FBE0F9064
:100130001F90189590914201E92FF0E0EE57FE4F85
:1001400080839F5F97FD03C09093420108951092B2
:10015000420108951F93CF93DF93EC0110E0812FAC
:1001600090E0FE0101900020E9F73197EC1BFD0BB8
:100170008E179F0740F4FE01E80FF91F80810E944F
:100180009A001F5FECCF8091C00085FD1092C600E1
:10019000DF91CF911F9108951F920F920FB60F928A
:1001A00011248F93EF93FF93E091430180914201DB
:1001B000E81781F0F0E0EE57FE4F80818093C60093
:1001C000809143018F5F87FD03C08093430102C08C
:1001D00010924301FF91EF918F910F900FBE0F90FE
:1001E0001F9018951092C50087E68093C4008091F7
:1001F000C10088648093C1008091C20086608093B2
:10020000C2008FB780688FBF0E94590080917C0028
:1002100042E050E066E471E090E00E94790180E005
:1002200091E00E94AA0086E491E00E94AA0080E189
:1002300091E00E94AA002FEF8DE399E421508040C5
:100240009040E1F700C0000080917A0042E050E069
:1002500066E471E090E00E94790182E191E00E9401
:10026000AA0086E491E00E94AA0080E191E00E9449
:10027000AA002FEF8DE399E4215080409040E1F7F0
:1002800000C0000080917E0042E050E066E471E032
:1002900090E00E94790183E291E00E94AA0086E446
:1002A00091E00E94AA0080E191E00E94AA002FEF55
:1002B0008DE399E4215080409040E1F700C00000B8
:1002C00080917800609154017091550142E050E0B6
:1002D00090E00E94790180917900609146017091CF
:1002E000470142E050E090E00E94790183E391E011
:1002F000D4CF4532510520F4423010F00C948401E3
:10030000FB011082CB010895BB274A3031F49923B9
:1003100022F4BDE2909581959F4F0C949001BB27EC
:10032000FB015527AA27880F991FAA1FA41710F0B1
:10033000A41B83955051B9F7A05DAA3308F0A95DBD
:10034000A193009779F7B111B1931192CB010C945D
:10035000A901DC01FC01672F71917723E1F7329746
:1003600004C07C916D9370836291AE17BF07C8F390
:060370000895F894FFCF90
:1003760041444D55582076616C756520697320009F
:100386000A004144435352412076616C75652069E9
:1003960073200044494452302076616C75652069AB
:1003A6007320004144432076616C75652069732093
:0203B600000045
:00000001FF
