:100000000C9434000C9451000C9451000C94510049
:100010000C9451000C9451000C9451000C9451001C
:100020000C9451000C9451000C9451000C9451000C
:100030000C9451000C9451000C9451000C945100FC
:100040000C9453000C9451000C9451000C945100EA
:100050000C948F000C9451000C9451000C9451009E
:100060000C9451000C94510011241FBECFEFD8E026
:10007000DEBFCDBF11E0A0E0B1E0E4E9F3E002C0F3
:1000800005900D92A436B107D9F722E0A4E6B1E0BD
:1000900001C01D92A432B207E1F70E94B5000C9492
:1000A000C8010C9400001F920F920FB60F921124FA
:1000B0000F900FBE0F901F90189590916401E92F3B
:1000C000F0E0EC55FE4F80839F5F97FD03C0909357
:1000D000640108951092640108951F93CF93DF93F4
:1000E000EC0110E0812F90E0FE0101900020E9F783
:1000F0003197EC1BFD0B8E179F0740F4FE01E80FB4
:10010000F91F80810E945D001F5FECCF8091C000CD
:1001100085FD1092C600DF91CF911F9108951F9227
:100120000F920FB60F9211248F93EF93FF93E091EC
:10013000650180916401E81781F0F0E0EC55FE4F15
:1001400080818093C600809165018F5F87FD03C029
:100150008093650102C010926501FF91EF918F912C
:100160000F900FBE0F901F90189584B5836084BDCB
:1001700084B5806884BD85B5816085BD80916E0041
:10018000816080936E008DE787BD8FB780688FBFD9
:10019000569A1092C50087E68093C4008091C100F2
:1001A00088648093C1008091C20086608093C20001
:1001B00084B542E050E068E671E090E00E9488017A
:1001C00080E091E00E946D0088E691E00E946D0061
:1001D00081E191E00E946D002FEF89E698E12150C6
:1001E00080409040E1F700C0000085B542E050E05B
:1001F00068E671E090E00E94880183E191E00E944E
:100200006D0088E691E00E946D0081E191E00E941E
:100210006D002FEF89E698E1215080409040E1F792
:1002200000C0000080916E0042E050E068E671E09E
:1002300090E00E94880184E291E00E946D0088E6CF
:1002400091E00E946D0081E191E00E946D002FEF2E
:1002500089E698E1215080409040E1F700C000001D
:1002600087B542E050E068E671E090E00E948801C6
:1002700085E391E00E946D0088E691E00E946D00A8
:1002800081E191E00E946D002FEF89E698E1215015
:1002900080409040E1F700C000008FB742E050E09E
:1002A00068E671E090E00E94880185E491E00E9498
:1002B0006D0088E691E00E946D0081E191E00E946E
:1002C0006D002FEF89E698E1215080409040E1F7E2
:1002D00000C000008AB142E050E068E671E090E0C2
:1002E0000E94880184E591E00E946D0088E691E01B
:1002F0000E946D0081E191E00E946D002FEF89E680
:1003000098E1215080409040E1F700C00000F6CF16
:100310004532510520F4423010F00C949301FB015A
:100320001082CB010895BB274A3031F4992322F47F
:10033000BDE2909581959F4F0C949F01BB27FB01D7
:100340005527AA27880F991FAA1FA41710F0A41BCE
:1003500083955051B9F7A05DAA3308F0A95DA19328
:10036000009779F7B111B1931192CB010C94B801B8
:10037000DC01FC01672F71917723E1F7329704C00C
:100380007C916D9370836291AE17BF07C8F3089597
:04039000F894FFCF0F
:100394005443435230412076616C75652069732063
:1003A400000A005443435230422076616C75652044
:1003B4006973200054494D534B302076616C756548
:1003C40020697320004F435230412076616C75657B
:1003D4002069732000535245472076616C7565206F
:1003E40069732000444452442076616C7565206929
:0403F4007320000072
:00000001FF
