:100000000C9434000C9451000C9451000C94510049
:100010000C9451000C9451000C9451000C9451001C
:100020000C9451000C9451000C9451000C9451000C
:100030000C9451000C9451000C9453000C945100FA
:100040000C9451000C9451000C9451000C945100EC
:100050000C94AF000C9451000C9451000C9451007E
:100060000C9451000C94510011241FBECFEFD8E026
:10007000DEBFCDBF11E0A0E0B1E0EEEDF2E002C0E6
:1000800005900D92AE32B107D9F722E0AEE2B1E0B1
:1000900001C01D92A430B207E1F70E94D5000C9474
:1000A0006D010C9400001F920F920FB60F92112455
:1000B0008F939F9380913201909133010196909399
:1000C0003301809332018536910584F080913001AF
:1000D000909131010196909331018093300185B167
:1000E000809585B910923301109232019F918F91C2
:1000F0000F900FBE0F901F90189590912E01E92F31
:10010000F0E0EC57FE4F80839F5F97FD03C0909314
:100110002E01089510922E0108951F93CF93DF931F
:10012000EC0110E0812F90E0FE0101900020E9F742
:100130003197EC1BFD0B8E179F0740F4FE01E80F73
:10014000F91F80810E947D001F5FECCF8091C0006D
:1001500085FD1092C600DF91CF911F9108951F92E7
:100160000F920FB60F9211248F93EF93FF93E091AC
:100170002F0180912E01E81781F0F0E0EC57FE4F3F
:1001800080818093C60080912F018F5F87FD03C01F
:1001900080932F0102C010922F01FF91EF918F9158
:1001A0000F900FBE0F901F90189584B5826084BD8C
:1001B00085B5856085BD8CE987BD80916E008260C4
:1001C00080936E008FB780688FBF81E084B91092F2
:1001D000C50087E68093C4008091C1008864809345
:1001E000C1008091C20086608093C20080916E0041
:1001F00042E050E064E371E090E00E942D0180E075
:1002000091E00E948D0084E391E00E948D008BE2DA
:1002100091E00E948D0085B142E050E064E371E01E
:1002200090E00E942D0181E191E00E948D0084E325
:1002300091E00E948D008BE291E00E948D0081E2AE
:1002400091E00E948D002FEF83ED90E321508040DC
:100250009040E1F700C00000DECF4532510520F4A8
:10026000423010F00C943801FB011082CB0108954C
:10027000BB274A3031F4992322F4BDE29095819551
:100280009F4F0C944401BB27FB015527AA27880FD9
:10029000991FAA1FA41710F0A41B83955051B9F7FA
:1002A000A05DAA3308F0A95DA193009779F7B11179
:1002B000B1931192CB010C945D01DC01FC01672F1D
:1002C00071917723E1F7329704C07C916D9370832D
:0E02D0006291AE17BF07C8F30895F894FFCFF0
:1002DE0054494D534B302076616C756520697320FF
:1002EE0000504F5254422076616C75652069732020
:0E02FE00003D3D3D3D3D3D3D3D3D200A0000A3
:00000001FF
