:100000000C9434000C9451000C9451000C94510049
:100010000C9451000C9451000C9451000C9451001C
:100020000C9451000C9451000C9451000C9451000C
:100030000C9451000C9451000C9485000C945100C8
:100040000C9451000C9451000C9451000C945100EC
:100050000C94D0000C9451000C9451000C9451005D
:100060000C9451000C94510011241FBECFEFD8E026
:10007000DEBFCDBF11E0A0E0B1E0E6E0F3E002C0FA
:1000800005900D92A632B107D9F721E0A6E2B1E0C2
:1000900001C01D92A83EB207E1F70E94F6000C9441
:1000A00081010C94000090912601E92FF0E0E859BD
:1000B000FE4F80839F5F97FD03C0909326010895B4
:1000C0001092260108951F93CF93DF93EC0110E067
:1000D000812F90E0FE0101900020E9F73197EC1BA1
:1000E000FD0B8E179F0740F4FE01E80FF91F80817A
:1000F0000E9453001F5FECCF8091C00085FD1092DD
:10010000C600DF91CF911F9108951F920F920FB6F5
:100110000F9211242F933F934F935F936F937F938D
:100120008F939F93AF93BF93EF93FF9380912A0197
:1001300090912B01019690932B0180932A01853693
:100140009105ECF042E050E06CE271E08091280112
:10015000909129010E94410183E191E00E94630096
:100160008CE291E00E94630081E191E00E946300D3
:1001700085B1809585B910922B0110922A01FF91CB
:10018000EF91BF91AF919F918F917F916F915F910F
:100190004F913F912F910F900FBE0F901F90189588
:1001A0001F920F920FB60F9211248F93EF93FF932C
:1001B000E091270180912601E81781F0F0E0E859ED
:1001C000FE4F80818093C600809127018F5F87FD5D
:1001D00003C08093270102C010922701FF91EF9185
:1001E0008F910F900FBE0F901F90189514BC85B57E
:1001F000856085BD80916E00826080936E008FB7B0
:1002000080688FBF81E084B91092C50087E6809333
:10021000C4008091C10088648093C1008091C200B5
:1002200086608093C20086B590E0209128013091CD
:1002300029012817390734F486B590E090932901F5
:100240008093280180916F0042E050E06CE271E001
:1002500090E00E94410180E091E00E9463008CE206
:1002600091E00E94630081E191E00E9463002FEF22
:1002700083ED90E3215080409040E1F700C0000002
:10028000D2CF4532510520F4423010F00C944C018D
:10029000FB011082CB010895BB274A3031F499232A
:1002A00022F4BDE2909581959F4F0C945801BB2795
:1002B000FB015527AA27880F991FAA1FA41710F022
:1002C000A41B83955051B9F7A05DAA3308F0A95D2E
:1002D000A193009779F7B111B1931192CB010C94CE
:1002E0007101DC01FC01672F71917723E1F73297EF
:1002F00004C07C916D9370836291AE17BF07C8F301
:060300000895F894FFCF00
:1003060054494D534B312076616C756520697320D5
:10031600000A0074636E746F4D61782076616C75A7
:0603260065206973200050
:00000001FF
