:100000000C9434000C948F000C9451000C9451000B
:100010000C9451000C9451000C9451000C9451001C
:100020000C9451000C9451000C9451000C9451000C
:100030000C9451000C9451000C9451000C945100FC
:100040000C9453000C9451000C9451000C945100EA
:100050000C94CA000C9451000C9451000C94510063
:100060000C9451000C94510011241FBECFEFD8E026
:10007000DEBFCDBF11E0A0E0B1E0EEE3F2E002C0F0
:1000800005900D92AC30B107D9F721E0ACE0B1E0BA
:1000900001C01D92AC3CB207E1F70E94F0000C9445
:1000A0001D010C9400001F920F920FB60F921124A5
:1000B0000F900FBE0F901F90189590910E01E92F91
:1000C000F0E0E45BFE4F80839F5F97FD03C0909359
:1000D0000E01089510920E0108951F93CF93DF93A0
:1000E000EC0110E0812F90E0FE0101900020E9F783
:1000F0003197EC1BFD0B8E179F0740F4FE01E80FB4
:10010000F91F80810E945D001F5FECCF8091C000CD
:1001100085FD1092C600DF91CF911F9108951F9227
:100120000F920FB60F9211242F933F934F935F932B
:100130006F937F938F939F93AF93BF93EF93FF93AF
:100140008DB38DBB80910C0190910D010196909320
:100150000D0180930C0180E091E00E946D002FEF73
:1001600089E698E1215080409040E1F700C000000E
:10017000E89AFF91EF91BF91AF919F918F917F91FD
:100180006F915F914F913F912F910F900FBE0F9004
:100190001F9018951F920F920FB60F9211248F93F4
:1001A000EF93FF93E0910F0180910E01E81781F02A
:1001B000F0E0E45BFE4F80818093C60080910F01E8
:1001C0008F5F87FD03C080930F0102C010920F0163
:1001D000FF91EF918F910F900FBE0F901F90189588
:1001E0001092C50087E68093C4008091C1008864A6
:1001F0008093C1008091C20086608093C200789491
:1002000085B585BD84B5836084BD84B5806884BDB3
:1002100085B5816085BD80916E00816080936E00A0
:1002200089E987BD569A8091690082608093690050
:0E0230008AB18AB95A9AE89AFFCFF894FFCFA4
:0C023E004163746976617465640A000015
:00000001FF
