:100000000C9434000C9451000C9451000C94510049
:100010000C9451000C9451000C9451000C9451001C
:100020000C9451000C9451000C9451000C9451000C
:100030000C9451000C9451000C9451000C948500C8
:100040000C9451000C9451000C9451000C945100EC
:100050000C94CF000C9451000C9451000C9451005E
:100060000C9451000C94510011241FBECFEFD8E026
:10007000DEBFCDBF11E0A0E0B1E0E0E3F3E002C0FD
:1000800005900D92AE32B107D9F721E0AEE2B1E0B2
:1000900001C01D92AB3DB207E1F70E94F5000C9440
:1000A00096010C94000090913101E92FF0E0ED5C95
:1000B000FE4F80839F5F97FD03C0909331010895A9
:1000C0001092310108951F93CF93DF93EC0110E05C
:1000D000812F90E0FE0101900020E9F73197EC1BA1
:1000E000FD0B8E179F0740F4FE01E80FF91F80817A
:1000F0000E9453001F5FECCF8091C00085FD1092DD
:10010000C600DF91CF911F9108951F920F920FB6F5
:100110000F9211242F933F934F935F936F937F938D
:100120008F939F93AF93BF93EF93FF9380912F0192
:100130008F5F80932F0183E291E00E9463008091A2
:100140002F014AE050E063EB71E090E00E9456011D
:1001500083EB91E00E9463008BE091E00E946300DA
:1001600080912F01843650F010922F018BE291E0A4
:100170000E9463008BE091E00E946300FF91EF9189
:10018000BF91AF919F918F917F916F915F914F91AF
:100190003F912F910F900FBE0F901F9018951F92B7
:1001A0000F920FB60F9211248F93EF93FF93E0916C
:1001B000320180913101E81781F0F0E0ED5CFE4FF3
:1001C00080818093C600809132018F5F87FD03C0DC
:1001D0008093320102C010923201FF91EF918F9112
:1001E0000F900FBE0F901F9018951092C50087E6D4
:1001F0008093C40088E48093C10086E08093C200AD
:10020000789484B584BD85B585BD85B5856085BD8B
:1002100080916E00846080936E008CE988BD2FEF22
:1002200089E698E1215080409040E1F700C000004D
:1002300080E091E00E94630085B542E050E063EB0E
:1002400071E090E00E94560183EB91E00E94630010
:100250008BE091E00E9463008DE091E00E946300DA
:1002600084B542E050E063EB71E090E00E945601FB
:1002700083EB91E00E9463008BE091E00E946300B9
:1002800088E191E00E94630080916E0042E050E0BE
:1002900063EB71E090E00E94560183EB91E00E94D5
:1002A00063008BE091E00E946300FFCF453251056F
:1002B00020F4423010F00C946101FB011082CB015C
:1002C0000895BB274A3031F4992322F4BDE290957A
:1002D00081959F4F0C946D01BB27FB015527AA27E1
:1002E000880F991FAA1FA41710F0A41B83955051C3
:1002F000B9F7A05DAA3308F0A95DA193009779F73B
:10030000B111B1931192CB010C948601DC01FC0177
:10031000672F71917723E1F7329704C07C916D9339
:1003200070836291AE17BF07C8F30895F894FFCFAA
:1003300054434352304220697320000A005443431F
:10034000523041206973200054494D534B3020698D
:0E0350007320004F56422069732000310000D8
:00000001FF
