:100000000C9434000C9451000C9451000C94510049
:100010000C9451000C9451000C9451000C9451001C
:100020000C9451000C9451000C9451000C9451000C
:100030000C9451000C9451000C9485000C945100C8
:100040000C9451000C9451000C9451000C945100EC
:100050000C94D2000C9451000C9451000C9451005B
:100060000C9451000C94510011241FBECFEFD8E026
:10007000DEBFCDBF11E0A0E0B1E0EAEAF2E002C0ED
:1000800005900D92A430B107D9F721E0A4E0B1E0CA
:1000900001C01D92AF3AB207E1F70E94F8000C943C
:1000A00053010C94000090910501E92FF0E0E95F05
:1000B000FE4F80839F5F97FD03C0909305010895D5
:1000C0001092050108951F93CF93DF93EC0110E088
:1000D000812F90E0FE0101900020E9F73197EC1BA1
:1000E000FD0B8E179F0740F4FE01E80FF91F80817A
:1000F0000E9453001F5FECCF8091C00085FD1092DD
:10010000C600DF91CF911F9108951F920F920FB6F5
:100110000F9211242F933F934F935F936F937F938D
:100120008F939F93AF93BF93EF93FF9380910401BD
:100130008F5F8D3319F08093040123C01092040166
:1001400081E090E00090000102C0880F991F0A949E
:10015000E2F785B980910001815008F487E080932F
:10016000000185B142E050E067E871E090E00E9454
:10017000130187E891E00E94630081E091E00E9412
:100180006300FF91EF91BF91AF919F918F917F910C
:100190006F915F914F913F912F910F900FBE0F90F4
:1001A0001F9018951F920F920FB60F9211248F93E4
:1001B000EF93FF93E091060180910501E81781F02C
:1001C000F0E0E95FFE4F80818093C60080910601D8
:1001D0008F5F87FD03C08093060102C01092060165
:1001E000FF91EF918F910F900FBE0F901F90189578
:1001F0001092C50087E68093C40088E48093C10014
:1002000086E08093C200789482E084BD15BC85B5F9
:10021000856085BD9FEF97BD80916E008260809361
:100220006E0094B9FFCF4532510520F4423010F0F2
:100230000C941E01FB011082CB010895BB274A30AC
:1002400031F4992322F4BDE2909581959F4F0C944F
:100250002A01BB27FB015527AA27880F991FAA1F30
:10026000A41710F0A41B83955051B9F7A05DAA33D1
:1002700008F0A95DA193009779F7B111B19311929C
:10028000CB010C944301DC01FC01672F71917723B2
:10029000E1F7329704C07C916D9370836291AE1741
:0A02A000BF07C8F30895F894FFCFDC
:0402AA00070A00003F
:00000001FF
