:100000000C9434000C9451000C9451000C94510049
:100010000C9451000C9451000C9451000C9451001C
:100020000C9451000C9451000C9451000C9451000C
:100030000C9451000C9451000C9453000C94A900A2
:100040000C9451000C9451000C9451000C945100EC
:100050000C94DD000C9451000C9451000C94510050
:100060000C9451000C94510011241FBECFEFD8E026
:10007000DEBFCDBF11E0A0E0B1E0E4E4F2E002C0F9
:1000800005900D92A430B107D9F721E0A4E0B1E0CA
:1000900001C01D92A13BB207E1F70E9403010C943D
:1000A00020010C9400001F920F920FB60F921124A2
:1000B0008F93809106018F5F8093060180910401E8
:1000C000813031F48FEF87BD109206011092040148
:1000D000809106018E3129F484E887BD81E0809308
:1000E00004018F910F900FBE0F901F901895909163
:1000F0000701E92FF0E0E75FFE4F80839F5F97FDE8
:1001000003C09093070108951092070108951F936B
:10011000CF93DF93EC0110E0812F90E0FE0101907E
:100120000020E9F73197EC1BFD0B8E179F0740F479
:10013000FE01E80FF91F80810E9477001F5FECCF5E
:100140008091C00085FD1092C600DF91CF911F9174
:1001500008951F920F920FB60F9211242F933F9381
:100160004F935F936F937F938F939F93AF93BF93BF
:10017000EF93FF93809105018F5F8093050188B510
:10018000845688BD80910501843631F410920501B2
:1001900080E091E00E948700FF91EF91BF91AF91C5
:1001A0009F918F917F916F915F914F913F912F918F
:1001B0000F900FBE0F901F9018951F920F920FB6C1
:1001C0000F9211248F93EF93FF93E0910801809198
:1001D0000701E81781F0F0E0E75FFE4F8081809330
:1001E000C600809108018F5F87FD03C080930801DE
:1001F00002C010920801FF91EF918F910F900FBEF6
:100200000F901F9018951092C50087E68093C40048
:1002100088E48093C10086E08093C200789484B51E
:1002200084BD85B585BD85B5856085BD8FEF87BDEE
:100230008CE988BD80916E00866080936E00FFCF50
:04024000F894FFCF60
:04024400310A00007B
:00000001FF
