:100000000C9434000C9451000C9485000C94510015
:100010000C9451000C9451000C9451000C9451001C
:100020000C9451000C9451000C9451000C9451000C
:100030000C9451000C9451000C9451000C945100FC
:100040000C9451000C9451000C9451000C945100EC
:100050000C94C2000C9451000C9451000C9451006B
:100060000C9451000C94510011241FBECFEFD8E026
:10007000DEBFCDBF11E0A0E0B1E0E0E3F3E002C0FD
:1000800005900D92A632B107D9F721E0A6E2B1E0C2
:1000900001C01D92A63EB207E1F70E94E8000C9451
:1000A00096010C94000090912601E92FF0E0EA59A6
:1000B000FE4F80839F5F97FD03C0909326010895B4
:1000C0001092260108951F93CF93DF93EC0110E067
:1000D000812F90E0FE0101900020E9F73197EC1BA1
:1000E000FD0B8E179F0740F4FE01E80FF91F80817A
:1000F0000E9453001F5FECCF8091C00085FD1092DD
:10010000C600DF91CF911F9108951F920F920FB6F5
:100110000F9211242F933F934F935F936F937F938D
:100120008F939F93AF93BF93EF93FF938FB78FBF3F
:100130008091280190912901019690932901809343
:10014000280181E291E00E9463002FEF83EC99E0A7
:10015000215080409040E1F700C000008FB78068D8
:100160008FBFFF91EF91BF91AF919F918F917F9141
:100170006F915F914F913F912F910F900FBE0F9014
:100180001F9018951F920F920FB60F9211248F9304
:10019000EF93FF93E091270180912601E81781F00A
:1001A000F0E0EA59FE4F80818093C60080912701DC
:1001B0008F5F87FD03C08093270102C01092270143
:1001C000FF91EF918F910F900FBE0F901F90189598
:1001D000539888E08BB91092C50087E68093C400DD
:1001E0008091C10088648093C1008091C2008660C4
:1001F0008093C2008FB780688FBF8AB142E050E021
:100200006AE271E090E00E94560180E091E00E9475
:1002100063008AE291E00E9463008FE091E00E9417
:1002200063002FEF83ED90E3215080409040E1F791
:1002300000C000008BB142E050E06AE271E090E063
:100240000E94560181E191E00E9463008AE291E000
:100250000E9463008FE091E00E9463002FEF83ED26
:1002600090E3215080409040E1F700C00000809171
:10027000690080936900E99A809128019091290191
:1002800018161906ECF74AE050E06AE271E00E94A5
:1002900056018AE291E00E9463008FE091E00E94A3
:1002A00063001092290110922801E6CF45325105D2
:1002B00020F4423010F00C946101FB011082CB015C
:1002C0000895BB274A3031F4992322F4BDE290957A
:1002D00081959F4F0C946D01BB27FB015527AA27E1
:1002E000880F991FAA1FA41710F0A41B83955051C3
:1002F000B9F7A05DAA3308F0A95DA193009779F73B
:10030000B111B1931192CB010C948601DC01FC0177
:10031000672F71917723E1F7329704C07C916D9339
:1003200070836291AE17BF07C8F30895F894FFCFAA
:10033000444452442076616C756520697320000A3C
:1003400000504F5254442076616C756520697320CB
:0603500000547269670011
:00000001FF
