:100000000C9434000C9451000C9451000C94510049
:100010000C9451000C9451000C9451000C9451001C
:100020000C9451000C9451000C9451000C9451000C
:100030000C9451000C9451000C9451000C945100FC
:100040000C9451000C9451000C9451000C945100EC
:100050000C9485000C9451000C9451000C945100A8
:100060000C9451000C94510011241FBECFEFD8E026
:10007000DEBFCDBF11E0A0E0B1E0EEE8F1E002C0EC
:1000800005900D92A830B107D9F721E0A8E0B1E0C2
:1000900001C01D92A23BB207E1F70E94AB000C9495
:1000A000C5000C94000090910801E92FF0E0E65F94
:1000B000FE4F80839F5F97FD03C0909308010895D2
:1000C0001092080108951F93CF93DF93EC0110E085
:1000D000812F90E0FE0101900020E9F73197EC1BA1
:1000E000FD0B8E179F0740F4FE01E80FF91F80817A
:1000F0000E9453001F5FECCF8091C00085FD1092DD
:10010000C600DF91CF911F9108951F920F920FB6F5
:100110000F9211248F93EF93FF93E0910901809147
:100120000801E81781F0F0E0E65FFE4F80818093E0
:10013000C600809109018F5F87FD03C0809309018C
:1001400002C010920901FF91EF918F910F900FBEA5
:100150000F901F9018951092C50087E68093C400F9
:1001600088E48093C10086E08093C200789480E0A8
:1001700091E00E9463002FEF83ED90E321508040D7
:0E0180009040E1F700C00000F2CFF894FFCFEE
:08018E0048656C6C6F0A0D005E
:00000001FF
